{
  "contractName": "Banking",
  "abi": [
    {
      "inputs": [],
      "stateMutability": "nonpayable",
      "type": "constructor"
    },
    {
      "anonymous": false,
      "inputs": [
        {
          "indexed": false,
          "internalType": "uint256",
          "name": "_serialNumber",
          "type": "uint256"
        },
        {
          "indexed": false,
          "internalType": "bytes32",
          "name": "_name",
          "type": "bytes32"
        },
        {
          "indexed": false,
          "internalType": "bytes32",
          "name": "_location",
          "type": "bytes32"
        },
        {
          "indexed": false,
          "internalType": "uint256",
          "name": "_createdAt",
          "type": "uint256"
        },
        {
          "indexed": false,
          "internalType": "uint256",
          "name": "_balance",
          "type": "uint256"
        }
      ],
      "name": "AccountCreated",
      "type": "event"
    },
    {
      "anonymous": false,
      "inputs": [
        {
          "indexed": false,
          "internalType": "uint256",
          "name": "_amount",
          "type": "uint256"
        },
        {
          "indexed": false,
          "internalType": "uint256",
          "name": "_transacNumber",
          "type": "uint256"
        },
        {
          "indexed": false,
          "internalType": "uint256",
          "name": "_currentAccountSerial",
          "type": "uint256"
        },
        {
          "indexed": false,
          "internalType": "bytes32",
          "name": "_transactionType",
          "type": "bytes32"
        }
      ],
      "name": "TransactionCompleted",
      "type": "event"
    },
    {
      "inputs": [
        {
          "internalType": "uint256",
          "name": "",
          "type": "uint256"
        }
      ],
      "name": "accounts",
      "outputs": [
        {
          "internalType": "uint256",
          "name": "serial",
          "type": "uint256"
        },
        {
          "internalType": "uint256",
          "name": "createdAt",
          "type": "uint256"
        },
        {
          "internalType": "string",
          "name": "name",
          "type": "string"
        },
        {
          "internalType": "string",
          "name": "location",
          "type": "string"
        },
        {
          "internalType": "address",
          "name": "creator",
          "type": "address"
        },
        {
          "internalType": "uint256",
          "name": "balance",
          "type": "uint256"
        },
        {
          "internalType": "bool",
          "name": "doesExist",
          "type": "bool"
        }
      ],
      "stateMutability": "view",
      "type": "function",
      "constant": true
    },
    {
      "inputs": [],
      "name": "bankBalance",
      "outputs": [
        {
          "internalType": "uint256",
          "name": "",
          "type": "uint256"
        }
      ],
      "stateMutability": "view",
      "type": "function",
      "constant": true
    },
    {
      "inputs": [],
      "name": "serialNumber",
      "outputs": [
        {
          "internalType": "uint256",
          "name": "",
          "type": "uint256"
        }
      ],
      "stateMutability": "view",
      "type": "function",
      "constant": true
    },
    {
      "inputs": [],
      "name": "transacNum",
      "outputs": [
        {
          "internalType": "uint256",
          "name": "",
          "type": "uint256"
        }
      ],
      "stateMutability": "view",
      "type": "function",
      "constant": true
    },
    {
      "inputs": [
        {
          "internalType": "uint256",
          "name": "",
          "type": "uint256"
        }
      ],
      "name": "transactions",
      "outputs": [
        {
          "internalType": "uint256",
          "name": "transacNum",
          "type": "uint256"
        },
        {
          "internalType": "uint256",
          "name": "currentBalance",
          "type": "uint256"
        },
        {
          "internalType": "uint256",
          "name": "amountTransacted",
          "type": "uint256"
        },
        {
          "internalType": "uint256",
          "name": "createdAt",
          "type": "uint256"
        },
        {
          "internalType": "string",
          "name": "transacType",
          "type": "string"
        },
        {
          "internalType": "uint256",
          "name": "accountSerialNumber",
          "type": "uint256"
        }
      ],
      "stateMutability": "view",
      "type": "function",
      "constant": true
    },
    {
      "inputs": [
        {
          "internalType": "address payable",
          "name": "_creator",
          "type": "address"
        },
        {
          "internalType": "string",
          "name": "_name",
          "type": "string"
        },
        {
          "internalType": "string",
          "name": "_location",
          "type": "string"
        }
      ],
      "name": "createAccount",
      "outputs": [],
      "stateMutability": "payable",
      "type": "function",
      "payable": true
    },
    {
      "inputs": [
        {
          "internalType": "uint256",
          "name": "_serial",
          "type": "uint256"
        },
        {
          "internalType": "uint256",
          "name": "_amount",
          "type": "uint256"
        },
        {
          "internalType": "address payable",
          "name": "_creator",
          "type": "address"
        }
      ],
      "name": "addBalance",
      "outputs": [],
      "stateMutability": "payable",
      "type": "function",
      "payable": true
    },
    {
      "inputs": [
        {
          "internalType": "uint256",
          "name": "_serial",
          "type": "uint256"
        },
        {
          "internalType": "uint256",
          "name": "_amount",
          "type": "uint256"
        },
        {
          "internalType": "address payable",
          "name": "_creator",
          "type": "address"
        }
      ],
      "name": "withdrawBalance",
      "outputs": [
        {
          "internalType": "bool",
          "name": "_success",
          "type": "bool"
        }
      ],
      "stateMutability": "nonpayable",
      "type": "function"
    },
    {
      "inputs": [
        {
          "internalType": "uint256",
          "name": "_amount",
          "type": "uint256"
        },
        {
          "internalType": "uint256",
          "name": "_serial_2",
          "type": "uint256"
        },
        {
          "internalType": "uint256",
          "name": "_serial",
          "type": "uint256"
        }
      ],
      "name": "transactAmount",
      "outputs": [],
      "stateMutability": "nonpayable",
      "type": "function"
    },
    {
      "inputs": [
        {
          "internalType": "uint256",
          "name": "_amount",
          "type": "uint256"
        },
        {
          "internalType": "uint256",
          "name": "_serial",
          "type": "uint256"
        }
      ],
      "name": "getLoan",
      "outputs": [],
      "stateMutability": "payable",
      "type": "function",
      "payable": true
    },
    {
      "inputs": [
        {
          "internalType": "uint256",
          "name": "_installment",
          "type": "uint256"
        },
        {
          "internalType": "uint256",
          "name": "_serial",
          "type": "uint256"
        },
        {
          "internalType": "address payable",
          "name": "_creator",
          "type": "address"
        }
      ],
      "name": "retrieveLoan",
      "outputs": [],
      "stateMutability": "payable",
      "type": "function",
      "payable": true
    },
    {
      "inputs": [
        {
          "internalType": "uint256",
          "name": "_serial",
          "type": "uint256"
        }
      ],
      "name": "getBalance",
      "outputs": [
        {
          "internalType": "uint256",
          "name": "",
          "type": "uint256"
        }
      ],
      "stateMutability": "view",
      "type": "function",
      "constant": true
    },
    {
      "inputs": [
        {
          "internalType": "address payable",
          "name": "_account",
          "type": "address"
        }
      ],
      "name": "getSenderBalance",
      "outputs": [
        {
          "internalType": "uint256",
          "name": "",
          "type": "uint256"
        }
      ],
      "stateMutability": "view",
      "type": "function",
      "constant": true
    },
    {
      "inputs": [],
      "name": "getContractBalance",
      "outputs": [
        {
          "internalType": "uint256",
          "name": "",
          "type": "uint256"
        }
      ],
      "stateMutability": "view",
      "type": "function",
      "constant": true
    },
    {
      "inputs": [],
      "name": "getOwner",
      "outputs": [
        {
          "internalType": "address",
          "name": "",
          "type": "address"
        }
      ],
      "stateMutability": "view",
      "type": "function",
      "constant": true
    }
  ],
  "bytecode": "0x608060405260008055600060015560006002553480156200001f57600080fd5b506040805160e081018252600080825242602080840191825284518086018652600a8082526943727970746f5361666560b01b8284015285870191825286518088019097528652694352532043727970746f60b01b86830152606085019590955230608085015260a08401839052600160c08501529180526003825282517f3617319a054d772f909f7c479a2cebe5066e836a939412e32403c99029b92eff90815590517f3617319a054d772f909f7c479a2cebe5066e836a939412e32403c99029b92f0055925180519293926200011b927f3617319a054d772f909f7c479a2cebe5066e836a939412e32403c99029b92f019201906200018a565b5060608201518051620001399160038401916020909101906200018a565b5060808201516004820180546001600160a01b0319166001600160a01b0390921691909117905560a0820151600582015560c0909101516006909101805460ff19169115159190911790556200026d565b828054620001989062000230565b90600052602060002090601f016020900481019282620001bc576000855562000207565b82601f10620001d757805160ff191683800117855562000207565b8280016001018555821562000207579182015b8281111562000207578251825591602001919060010190620001ea565b506200021592915062000219565b5090565b5b808211156200021557600081556001016200021a565b6002810460018216806200024557607f821691505b602082108114156200026757634e487b7160e01b600052602260045260246000fd5b50919050565b611746806200027d6000396000f3fe6080604052600436106100e85760003560e01c80636f9fb98a1161008a578063b9cc1d9711610059578063b9cc1d9714610233578063e15cdcc414610246578063f2a40db814610259578063fb3d47711461028c576100e8565b80636f9fb98a146101aa5780637cfa4dbc146101bf578063893d20e8146101df5780639ace38c214610201576100e8565b80632a0daeea116100c65780632a0daeea1461014d5780633bd8b71d146101625780634dbe4454146101825780636b17aa8314610195576100e8565b806306789aba146100ed5780631e0104391461010257806328657aa514610138575b600080fd5b6101006100fb36600461132a565b6102b9565b005b34801561010e57600080fd5b5061012261011d366004611312565b610425565b60405161012f9190611469565b60405180910390f35b34801561014457600080fd5b5061012261043d565b34801561015957600080fd5b50610122610443565b34801561016e57600080fd5b5061010061017d36600461137f565b610449565b6101006101903660046112a1565b610787565b3480156101a157600080fd5b5061012261098c565b3480156101b657600080fd5b50610122610992565b3480156101cb57600080fd5b506101226101da366004611287565b610996565b3480156101eb57600080fd5b506101f46109a3565b60405161012f91906113f5565b34801561020d57600080fd5b5061022161021c366004611312565b6109a7565b60405161012f969594939291906115e1565b61010061024136600461134b565b610a66565b61010061025436600461134b565b610c40565b34801561026557600080fd5b50610279610274366004611312565b610df6565b60405161012f9796959493929190611472565b34801561029857600080fd5b506102ac6102a736600461134b565b610f50565b60405161012f9190611409565b6102cb670de0b6b3a764000083611637565b600082815260036020526040812060050180549091906102ec90849061161f565b909155505060018054906000610301836116a9565b90915550506040805160c0810182526001548152600083815260036020908152908390206005015490820152908101610342670de0b6b3a764000085611637565b81526020014281526020016040518060400160405280600f81526020016e2637b0b72a3930b739b0b1ba34b7b760891b8152508152602001828152506004600060015481526020019081526020016000206000820151816000015560208201518160010155604082015181600201556060820151816003015560808201518160040190805190602001906103d7929190611156565b5060a091909101516005909101556000805160206116f1833981519152610406670de0b6b3a764000084611637565b60015483604051610419939291906115b3565b60405180910390a15050565b6000818152600360205260409020600501545b919050565b60025481565b60005481565b61045b670de0b6b3a764000084611637565b61046690600161161f565b600082815260036020526040902060050154106107615761048f670de0b6b3a764000084611637565b600082815260036020526040812060050180549091906104b0908490611657565b909155506104c89050670de0b6b3a764000084611637565b600083815260036020526040812060050180549091906104e990849061161f565b9091555050600180549060006104fe836116a9565b909155506000805160206116f18339815191529050610525670de0b6b3a764000085611637565b60015460005460405161053a9392919061152e565b60405180910390a16040805160c081018252600154815260008381526003602090815290839020600501549082015290810161057e670de0b6b3a764000086611637565b815260200142815260200160405180604001604052806011815260200170151c985b9cd9995c935bdb995e54d95b9d607a1b815250815260200182815250600460006001548152602001908152602001600020600082015181600001556020820151816001015560408201518160020155606082015181600301556080820151816004019080519060200190610615929190611156565b5060a0919091015160059091015560018054906000610633836116a9565b909155506000805160206116f1833981519152905061065a670de0b6b3a764000085611637565b60015460005460405161066f939291906114fa565b60405180910390a16040805160c08101825260015481526000848152600360209081529083902060050154908201529081016106b3670de0b6b3a764000086611637565b815260200142815260200160405180604001604052806015815260200174151c985b9cd9995c935bdb995e549958d95a5d9959605a1b81525081526020018381525060046000600154815260200190815260200160002060008201518160000155602082015181600101556040820151816002015560608201518160030155608082015181600401908051906020019061074e929190611156565b5060a08201518160050155905050610782565b60405162461bcd60e51b81526004016107799061143d565b60405180910390fd5b505050565b6001836001600160a01b03163110610761576000805490806107a8836116a9565b90915550506040805160e08101825260008054808352426020808501918252848601888152606086018890526001600160a01b038a166080870152600160a0870181905260c08701819052938552600382529590932084518155905191810191909155925180519293926108229260028501920190611156565b506060820151805161083e916003840191602090910190611156565b5060808201516004820180546001600160a01b0319166001600160a01b0390921691909117905560a0820151600582015560c0909101516006909101805460ff1916911515919091179055600280546001919060009061089f90849061161f565b9091555050600180549060006108b4836116a9565b90915550506040805160c081018252600180548083526020808401838152848601848152426060870190815287518089018952600a81526913995dd058d8dbdd5b9d60b21b81860152608088019081526000805460a08a01529586526004808652989095208751815592519583019590955551600282015592516003840155905180519394929361094c938501929190910190611156565b5060a082015181600501559050506000805160206116f18339815191526001805460005460405161097f93929190611414565b60405180910390a1610782565b60015481565b4790565b6001600160a01b03163190565b3390565b6004602081905260009182526040909120805460018201546002830154600384015494840180549395929491936109dd9061166e565b80601f0160208091040260200160405190810160405280929190818152602001828054610a099061166e565b8015610a565780601f10610a2b57610100808354040283529160200191610a56565b820191906000526020600020905b815481529060010190602001808311610a3957829003601f168201915b5050505050908060050154905086565b610a78670de0b6b3a764000084611637565b610a8390600161161f565b60008381526003602052604090206005015410610bf857610aac670de0b6b3a764000084611637565b60008381526003602052604081206005018054909190610acd908490611657565b909155505060018054906000610ae2836116a9565b90915550506040805160c0810182526001548152600084815260036020908152908390206005015490820152908101610b23670de0b6b3a764000086611637565b81526020014281526020016040518060400160405280600d81526020016c131bd85b94995d1c9a595d985b609a1b815250815260200183815250600460006001548152602001908152602001600020600082015181600001556020820151816001015560408201518160020155606082015181600301556080820151816004019080519060200190610bb6929190611156565b5060a091909101516005909101556000805160206116f1833981519152610be5670de0b6b3a764000085611637565b6001548460405161097f939291906114ce565b610c03828483610c40565b610c15670de0b6b3a764000084611637565b60008381526003602052604081206005018054909190610c36908490611657565b9091555050505050565b610c52670de0b6b3a764000083611637565b610c5d90600161161f565b816001600160a01b0316311061076157610c7f670de0b6b3a764000083611637565b60008481526003602052604081206005018054909190610ca090849061161f565b90915550610cb89050670de0b6b3a764000083611637565b60026000828254610cc9919061161f565b909155505060018054906000610cde836116a9565b90915550506040805160c0810182526001548152600085815260036020908152908390206005015490820152908101610d1f670de0b6b3a764000085611637565b81526020014281526020016040518060400160405280600d81526020016c416464696e6742616c616e636560981b815250815260200184815250600460006001548152602001908152602001600020600082015181600001556020820151816001015560408201518160020155606082015181600301556080820151816004019080519060200190610db2929190611156565b5060a091909101516005909101556000805160206116f1833981519152610de1670de0b6b3a764000084611637565b60015460005460405161097f93929190611587565b60036020526000908152604090208054600182015460028301805492939192610e1e9061166e565b80601f0160208091040260200160405190810160405280929190818152602001828054610e4a9061166e565b8015610e975780601f10610e6c57610100808354040283529160200191610e97565b820191906000526020600020905b815481529060010190602001808311610e7a57829003601f168201915b505050505090806003018054610eac9061166e565b80601f0160208091040260200160405190810160405280929190818152602001828054610ed89061166e565b8015610f255780601f10610efa57610100808354040283529160200191610f25565b820191906000526020600020905b815481529060010190602001808311610f0857829003601f168201915b505050506004830154600584015460069094015492936001600160a01b039091169290915060ff1687565b6000610f64670de0b6b3a764000084611637565b610f6f90600161161f565b60008581526003602052604090206005015410610761576040516001600160a01b0383169084156108fc029085906000818181858888f19350505050158015610fbc573d6000803e3d6000fd5b50610fcf670de0b6b3a764000084611637565b60008581526003602052604081206005018054909190610ff0908490611657565b909155506110089050670de0b6b3a764000084611637565b600260008282546110199190611657565b90915550506001805490600061102e836116a9565b90915550506040805160c081018252600154815260008681526003602090815290839020600501549082015290810161106f670de0b6b3a764000086611637565b81526020014281526020016040518060400160405280600a81526020016915da5d1a191c985dd85b60b21b8152508152602001858152506004600060015481526020019081526020016000206000820151816000015560208201518160010155604082015181600201556060820151816003015560808201518160040190805190602001906110ff929190611156565b5060a091909101516005909101556000805160206116f183398151915261112e670de0b6b3a764000085611637565b6001546000546040516111439392919061155e565b60405180910390a15060015b9392505050565b8280546111629061166e565b90600052602060002090601f01602090048101928261118457600085556111ca565b82601f1061119d57805160ff19168380011785556111ca565b828001600101855582156111ca579182015b828111156111ca5782518255916020019190600101906111af565b506111d69291506111da565b5090565b5b808211156111d657600081556001016111db565b80356001600160a01b038116811461043857600080fd5b600082601f830112611216578081fd5b813567ffffffffffffffff80821115611231576112316116da565b604051601f8301601f191681016020018281118282101715611255576112556116da565b60405282815284830160200186101561126c578384fd5b82602086016020830137918201602001929092529392505050565b600060208284031215611298578081fd5b61114f826111ef565b6000806000606084860312156112b5578182fd5b6112be846111ef565b9250602084013567ffffffffffffffff808211156112da578384fd5b6112e687838801611206565b935060408601359150808211156112fb578283fd5b5061130886828701611206565b9150509250925092565b600060208284031215611323578081fd5b5035919050565b6000806040838503121561133c578182fd5b50508035926020909101359150565b60008060006060848603121561135f578283fd5b8335925060208401359150611376604085016111ef565b90509250925092565b600080600060608486031215611393578283fd5b505081359360208301359350604090920135919050565b60008151808452815b818110156113cf576020818501810151868301820152016113b3565b818111156113e05782602083870101525b50601f01601f19169290920160200192915050565b6001600160a01b0391909116815260200190565b901515815260200190565b928352602083019190915260408201526913995dd058d8dbdd5b9d60b21b606082015260800190565b602080825260129082015271496e73756666696369656e742046756e647360701b604082015260600190565b90815260200190565b600088825287602083015260e0604083015261149160e08301886113aa565b82810360608401526114a381886113aa565b6001600160a01b03969096166080840152505060a0810192909252151560c090910152949350505050565b928352602083019190915260408201526c131bd85b94995d1c9a595d985b609a1b606082015260800190565b9283526020830191909152604082015274151c985b9cd9995c935bdb995e549958d95a5d9959605a1b606082015260800190565b9283526020830191909152604082015270151c985b9cd9995c935bdb995e54d95b9d607a1b606082015260800190565b928352602083019190915260408201526915da5d1a191c985dd85b60b21b606082015260800190565b928352602083019190915260408201526c416464696e6742616c616e636560981b606082015260800190565b928352602083019190915260408201526e2637b0b72a3930b739b0b1ba34b7b760891b606082015260800190565b600087825286602083015285604083015284606083015260c0608083015261160c60c08301856113aa565b90508260a0830152979650505050505050565b60008219821115611632576116326116c4565b500190565b60008261165257634e487b7160e01b81526012600452602481fd5b500490565b600082821015611669576116696116c4565b500390565b60028104600182168061168257607f821691505b602082108114156116a357634e487b7160e01b600052602260045260246000fd5b50919050565b60006000198214156116bd576116bd6116c4565b5060010190565b634e487b7160e01b600052601160045260246000fd5b634e487b7160e01b600052604160045260246000fdfe30bf4b72d8fd6ed273a42c7d6387deb12830c381458996419db8c925535c17bfa2646970667358221220e3cb1af20e76bd72e604201aad16ec86b2aadbe3669fa8d799197a3cc13cd2d064736f6c63430008000033",
  "immutableReferences": {},
  "source": "// SPDX-License-Identifier: MIT\npragma solidity ^0.8.0;\n\ncontract Banking {\n    //  using strings for *;\n\n    uint256 public serialNumber = 0;\n    uint256 public transacNum = 0;\n    uint256 public bankBalance = 0;\n\n    //Defining a struct to store the account details\n    struct Account {\n        uint256 serial;\n        uint256 createdAt;\n        string name;\n        string location;\n        address creator;\n        //   bytes32 accountName;\n        uint256 balance;\n        bool doesExist;\n    }\n\n    constructor() {\n        accounts[0] = Account(\n            0,\n            block.timestamp,\n            \"CryptoSafe\",\n            \"CRS Crypto\",\n            address(this),\n            0,\n            true\n        );\n    }\n\n    //Defining a struct to store transaction record\n    struct Transaction {\n        uint256 transacNum;\n        uint256 currentBalance;\n        uint256 amountTransacted;\n        uint256 createdAt;\n        string transacType;\n        uint256 accountSerialNumber;\n    }\n    \n\n\n\n    // All the mappings present in the contract\n    mapping(uint256 => Account) public accounts;\n    mapping(uint256 => Transaction) public transactions;\n\n    // error InsufficientFunds(uint _currentAccountSerialNumber,uint _balanceRequested,uint _balanceAvailable,string _transactionType);\n\n    event AccountCreated(\n        uint256 _serialNumber,\n        bytes32 _name,\n        bytes32 _location,\n        uint256 _createdAt,\n        uint256 _balance\n    );\n\n    event TransactionCompleted(\n        uint256 _amount,\n        uint256 _transacNumber,\n        uint256 _currentAccountSerial,\n        bytes32 _transactionType\n    );\n\n\n\n    //Function to create account , the 1 ETH balance will be taken from your ethereum account and deposited to the banking contract\n    function createAccount(\n        address payable _creator,\n        string memory _name,\n        string memory _location\n    ) public payable {\n        if (_creator.balance >= 1) {\n            serialNumber++;\n            accounts[serialNumber] = Account(\n                serialNumber,\n                block.timestamp,\n                _name,\n                _location,\n                _creator,\n                1,\n                true\n            );\n            bankBalance += 1;\n            transacNum++;\n            transactions[transacNum] = Transaction(\n                transacNum,\n                1,\n                1,\n                block.timestamp,\n                \"NewAccount\",\n                serialNumber\n            );\n            emit TransactionCompleted(\n                1,\n                transacNum,\n                serialNumber,\n                \"NewAccount\"\n            );\n        } else {\n            revert(\"Insufficient Funds\");\n            // revert InsufficientFunds(serialNumber,1,_creator.balance-1,'NewAccount');\n        }\n    }\n\n\n\n\n    //Function to add balance to your existing acccount ,the balance will be taken from your ethereum account\n    function addBalance(\n        uint256 _serial,\n        uint256 _amount,\n        address payable _creator\n    ) public payable {\n        if (_creator.balance >= _amount / 1000000000000000000 + 1) {\n            accounts[_serial].balance += _amount / 1000000000000000000;\n            bankBalance += _amount / 1000000000000000000;\n            transacNum++;\n\n            transactions[transacNum] = Transaction(\n                transacNum,\n                accounts[_serial].balance,\n                _amount / 1000000000000000000,\n                block.timestamp,\n                \"AddingBalance\",\n                _serial\n            );\n\n            emit TransactionCompleted(\n                _amount / 1000000000000000000,\n                transacNum,\n                serialNumber,\n                \"AddingBalance\"\n            );\n        } else {\n            revert(\"Insufficient Funds\");\n            // revert InsufficientFunds(_serial,_amount/1000000000000000000,_creator.balance-1,'AddingBalance');\n        }\n    }\n\n\n\n    //Function to withdraw balance from your existing accounts, the balance will be transferred to your blockchain account\n    function withdrawBalance(\n        uint256 _serial,\n        uint256 _amount,\n        address payable _creator\n    ) \n    external returns (bool _success) {\n        if (accounts[_serial].balance >= _amount / 1000000000000000000 + 1) {\n            _creator.transfer(_amount);\n            accounts[_serial].balance -= _amount / 1000000000000000000;\n            bankBalance -= _amount / 1000000000000000000;\n            transacNum++;\n            transactions[transacNum] = Transaction(\n                transacNum,\n                accounts[_serial].balance,\n                _amount / 1000000000000000000,\n                block.timestamp,\n                \"Withdrawal\",\n                _serial\n            );\n            emit TransactionCompleted(\n                _amount / 1000000000000000000,\n                transacNum,\n                serialNumber,\n                \"Withdrawal\"\n            );\n            return true;\n        } else {\n            revert(\"Insufficient Funds\");\n            //   revert InsufficientFunds(_serial,_amount/1000000000000000000,accounts[_serial].balance-1,'Withdrawal');\n        }\n    }\n\n\n\n    //Function to virtually send money from one bank account to other\n    function transactAmount(\n        uint256 _amount,\n        uint256 _serial_2,\n        uint256 _serial\n    ) public {\n        if (accounts[_serial].balance >= _amount / 1000000000000000000 + 1) {\n            accounts[_serial].balance -= _amount / 1000000000000000000;\n            accounts[_serial_2].balance += _amount / 1000000000000000000;\n            transacNum++;\n            emit TransactionCompleted(\n                _amount / 1000000000000000000,\n                transacNum,\n                serialNumber,\n                \"TransferMoneySent\"\n            );\n            transactions[transacNum] = Transaction(\n                transacNum,\n                accounts[_serial].balance,\n                _amount / 1000000000000000000,\n                block.timestamp,\n                \"TransferMoneySent\",\n                _serial\n            );\n            transacNum++;\n            emit TransactionCompleted(\n                _amount / 1000000000000000000,\n                transacNum,\n                serialNumber,\n                \"TransferMoneyReceived\"\n            );\n            transactions[transacNum] = Transaction(\n                transacNum,\n                accounts[_serial_2].balance,\n                _amount / 1000000000000000000,\n                block.timestamp,\n                \"TransferMoneyReceived\",\n                _serial_2\n            );\n        } else {\n            revert(\"Insufficient Funds\");\n            //   revert InsufficientFunds(_serial,_amount/1000000000000000000,accounts[_serial].balance-1,'TransferMoney');\n        }\n    }\n\n\n\n    //Function to get a loan from the bank the accounts will be virtually updated but the actual ETH will only be transferred if you want to withdraw the amount\n    function getLoan(uint256 _amount, uint256 _serial) public payable {\n        // if (bankBalance >= _amount / 100000000000000000) {\n            accounts[_serial].balance += _amount / 1000000000000000000;\n            transacNum++;\n            transactions[transacNum] = Transaction(\n                transacNum,\n                accounts[_serial].balance,\n                _amount / 1000000000000000000,\n                block.timestamp,\n                \"LoanTransaction\",\n                _serial\n            );\n            emit TransactionCompleted(\n                _amount / 1000000000000000000,\n                transacNum,\n                _serial,\n                \"LoanTransaction\"\n            );\n        // }\n        \n        //  else {\n        //     revert(\"Insufficient Funds\");\n        //     // revert InsufficientFunds(_serial,_amount/1000000000000000000,bankBalance/10,'LoanTransaction');\n        // }\n    }\n\n    function retrieveLoan(\n        uint256 _installment,\n        uint256 _serial,\n        address payable _creator\n    ) public payable {\n        if (\n            accounts[_serial].balance >=\n            (_installment / 1000000000000000000) + 1\n        ) {\n            accounts[_serial].balance -= _installment / 1000000000000000000;\n            transacNum++;\n            transactions[transacNum] = Transaction(\n                transacNum,\n                accounts[_serial].balance,\n                _installment / 1000000000000000000,\n                block.timestamp,\n                \"LoanRetrieval\",\n                _serial\n            );\n            emit TransactionCompleted(\n                _installment / 1000000000000000000,\n                transacNum,\n                _serial,\n                \"LoanRetrieval\"\n            );\n        } else {\n            addBalance(_serial, _installment, _creator);\n\n            accounts[_serial].balance -= _installment / 1000000000000000000;\n        }\n    }\n\n    \n\n    //Simple spare function to getBalance of any of the serial accounts won't be of much use but let's see\n    function getBalance(uint256 _serial) public view returns (uint256) {\n        uint256 bal = accounts[_serial].balance;\n        return bal;\n    }\n\n\n\n    //Function to get the msg.sender's ETH balance\n    function getSenderBalance(address payable _account)\n        external\n        view\n        returns (uint256)\n    {\n        return _account.balance;\n    }\n\n    //Function to get the contract's existing balance\n    function getContractBalance() external view returns (uint256) {\n        return address(this).balance;\n    }\n\n    //Function to get the owner\n    function getOwner() public view returns (address) {\n        return msg.sender;\n    }\n}\n\n",
  "sourcePath": "/Users/victoriaolatunji/DEV/Hackathon/CryotoSafe/contracts/Banking.sol",
  "compiler": {
    "name": "solc",
    "version": "0.8.0+commit.c7dfd78e.Emscripten.clang"
  },
  "schemaVersion": "3.4.11",
  "updatedAt": "2023-05-08T21:30:50.268Z",
  "networkType": "ethereum",
  "devdoc": {
    "kind": "dev",
    "methods": {},
    "version": 1
  },
  "userdoc": {
    "kind": "user",
    "methods": {},
    "version": 1
  }
}